:100000000C9478000C94A9000C94A9000C94A900FD
:100010000C94A9000C94A9000C94A9000C94A900BC
:100020000C94A9000C94A9000C94A9000C94A900AC
:100030000C94A9000C94A9000C94A9000C94A9009C
:100040000C94A9000C94A9000C94A9000C94A9008C
:100050000C94A9000C94A9000C94A9000C94AB007A
:100060000C94A9000C94A9000C94A9000C94A9006C
:100070000C94A9000C94A9000C94A9000C94A9005C
:100080000C94A9000C94A9000C94A9000C94A9004C
:100090000C94A9000C94A9000C94A9000C94A9003C
:1000A0000C94A9000C94A9000C94A9000C94A9002C
:1000B0000C94A9000C94A9000C94A9000C94A9001C
:1000C0000C94A9000C94A9000C94A9000C94A9000C
:1000D0000C94A9000C94A9000C94A9000C94A900FC
:1000E0000C94A9000C946C010C94B1016C01B10149
:1000F00011241FBECFEFD1E2DEBFCDBF00E00CBFA9
:1001000022E0A8E0B2E001C01D92AB31B207E1F7F6
:1001100012E0A0E0B2E0E4EDF7E000E00BBF02C0C7
:1001200007900D92A830B107D9F710E0C7E7D0E0EB
:1001300000E006C021970109802FFE010E94BA014C
:10014000C637D10780E00807A9F70E94F5000C9494
:10015000D8030C9400001F920F920FB60F92112437
:100160002F933F938F939F93AF93BF9380911302ED
:1001700090911402A0911502B091160230911202D2
:1001800023E0230F2D3758F50196A11DB11D2093B3
:1001900012028093130290931402A0931502B0935D
:1001A000160280910E0290910F02A0911002B09160
:1001B00011020196A11DB11D80930E0290930F02B2
:1001C000A0931002B0931102BF91AF919F918F91B4
:1001D0003F912F910F900FBE0F901F90189526E81A
:1001E000230F0296A11DB11DD2CF789484B58260F1
:1001F00084BD84B5816084BD85B5826085BD85B5CB
:10020000816085BD80916E00816080936E00109248
:1002100081008091810082608093810080918100C3
:100220008160809381008091800081608093800054
:100230008091B10084608093B1008091B0008160B2
:100240008093B000809191008260809391008091B2
:1002500091008160809391008091900081608093F3
:1002600090008091A10082608093A1008091A10004
:1002700081608093A1008091A00081608093A000A4
:100280008091210182608093210180912101816010
:1002900080932101809120018160809320018091D1
:1002A0007A00846080937A0080917A0082608093E3
:1002B0007A0080917A00816080937A0080917A0040
:1002C000806880937A001092C100C0E0D0E020974F
:1002D000F1F30E940000FBCF109209021092080275
:1002E00010920B0210920A0210920D0210920C0250
:1002F00061E070E090E080E00E94E7020097E1F0AA
:10030000909309028093080210920B0210920A0245
:1003100020910C0230910D02232B11F4FC0110826C
:1003200010920D0210920C0266E072E080910802B9
:10033000909109020C94D1038091080290910902D6
:10034000009711F00E945E021092090210920802BA
:1003500010920D0210920C0210920B0210920A02DF
:1003600008958091080290910902009711F00C9471
:100370005E020895EE0FFF1F881F8BBF0790F69156
:10038000E02D19940F931F93CF93DF938230910543
:1003900010F482E090E0E0911902F0911A0230E04E
:1003A00020E0B0E0A0E0309799F42115310509F480
:1003B0004AC0281B390B24303105D8F58A819B812E
:1003C0006115710589F1FB0193838283FE0111C0E0
:1003D000408151810281138148175907E0F0481785
:1003E000590799F4109761F012960C93129713968F
:1003F0001C933296CF01DF91CF911F910F910895F9
:100400000093190210931A02F4CF2115310551F00F
:100410004217530738F0A901DB019A01BD01DF0142
:10042000F801C1CFEF01F9CF90931A02809319021E
:10043000CDCFFE01E20FF31F81939193225031093A
:1004400039832883D7CF2091170230911802232BAC
:1004500041F420910202309103023093180220935C
:10046000170220910002309101022115310541F45B
:100470002DB73EB74091040250910502241B350B65
:10048000E0911702F0911802E217F307A0F42E1B77
:100490003F0B2817390778F0AC014E5F5F4F2417E8
:1004A000350748F04E0F5F1F509318024093170214
:1004B000819391939FCFF0E0E0E09CCFCF93DF93C7
:1004C0000097E9F0FC01329713821282A091190281
:1004D000B0911A02ED0130E020E01097A1F42081E4
:1004E0003181820F931F2091170230911802281733
:1004F000390709F061C0F0931802E0931702DF9109
:10050000CF910895EA01CE17DF07E8F54A815B81B4
:100510009E0141155105B1F7E901FB83EA83499139
:100520005991C40FD51FEC17FD0761F480819181AB
:100530000296840F951FE9019983888382819381B4
:100540009B838A83F0E0E0E012968D919C91139753
:100550000097B9F52D913C911197CD010296820F2C
:10056000931F20911702309118022817390739F686
:10057000309751F510921A0210921902B093180296
:10058000A0931702BCCFD383C28340815181840FD3
:10059000951FC817D90761F44E5F5F4F8881998115
:1005A000480F591F518340838A819B8193838283A3
:1005B0002115310509F0B0CFF0931A02E09319022A
:1005C0009ECFFD01DC01C0CF13821282D7CF4F92A4
:1005D0005F926F927F928F929F92AF92BF92CF92D3
:1005E000DF92EF92FF920F931F93CF93DF938C01D3
:1005F000009799F4CB01DF91CF911F910F91FF905C
:10060000EF90DF90CF90BF90AF909F908F907F90B2
:100610006F905F904F900C94C201FC01E60FF71FA2
:100620009C0122503109E217F30708F4AEC0D9014A
:10063000CD91DC911197C617D70720F1C530D105B0
:1006400078F0CE0104978617970750F0C61BD70B9A
:100650002297C193D1936D937C93CF010E945E0248
:10066000C801DF91CF911F910F91FF90EF90DF9024
:10067000CF90BF90AF909F908F907F906F905F9042
:100680004F9008955B01AC1ABD0A4C018C0E9D1E63
:10069000A0911902B0911A02512C412CF12CE12C9D
:1006A000109731F5809117029091180288159905DD
:1006B00009F05CC04616570608F058C08091000249
:1006C00090910102009741F48DB79EB740910402CA
:1006D00050910502841B950BE817F90708F055C0E7
:1006E000F0931802E0931702F90171836083B8CF89
:1006F0008D919C91119712966C90129713967C9005
:100700001397A815B90559F56C0142E0C40ED11C28
:10071000CA14DB0420F1AC014A195B09DA01129614
:10072000159780F06282738251834083D9016D9363
:100730007C93E114F10471F0D7011396FC93EE93CE
:1007400012978ECF22968C0F9D1FF9019183808383
:10075000F301EFCFF0931A02E093190281CF48160C
:10076000590608F42C017D01D3019ACFCB010E94D8
:10077000C2017C01009749F0AE01B8010E94C80394
:10078000C8010E945E0287016BCF10E000E068CFD5
:10079000FB01DC0102C001900D9241505040D8F79E
:1007A0000895FB01DC0101900D920020E1F708950E
:1007B00010E0C7E7D0E000E006C0802FFE010E94F5
:1007C000BA012196011DC837D10780E00807A9F7B3
:0407D000F894FFCFCB
:0807D40000001B028000000080
:00000001FF
