:100000000C9486000C94B7000C94B7000C94B700C5
:100010000C94B7000C94B7000C94B7000C94B70084
:100020000C94B7000C94B7000C94B7000C94B70074
:100030000C94B7000C94B7000C94B7000C94B70064
:100040000C94B7000C94B7000C94B7000C94B70054
:100050000C94B7000C94B7000C94B7000C94ED010D
:100060000C94B7000C9461020C9437020C94B70006
:100070000C94B7000C94B7000C94B7000C94B70024
:100080000C94B7000C94B7000C94B7000C94B70014
:100090000C94B7000C94B7000C94B7000C94B70004
:1000A0000C94B7000C94B7000C94B7000C94B700F4
:1000B0000C94B7000C94B7000C94B7000C94B700E4
:1000C0000C94B7000C94B7000C94B7000C94B700D4
:1000D0000C94B7000C94B7000C94B7000C94B700C4
:1000E0000C94B7000C94E3030C944F010C949C0106
:1000F0000C9417010C9409010C9497020C94F500D0
:100100000C94E6000C94B9009702E30311241FBE7F
:10011000CFEFD1E2DEBFCDBF00E00CBF22E0A8E30D
:10012000B2E001C01D92AA3EB207E1F712E0A0E0E2
:10013000B2E0E8E3FCE000E00BBF02C007900D92E4
:10014000A833B107D9F710E0C5E8D0E000E006C059
:1001500021970109802FFE010E94EC03C438D107CA
:1001600080E00807A9F70E941E030C940A060C946D
:100170000000AF92BF92CF92DF92EF92FF920F9367
:100180001F93CF93DF936C017B018B01040F151F2D
:10019000EB015E01AE18BF08C017D10759F0699195
:1001A000D601ED91FC910190F081E02DC6011995E9
:1001B000892B79F7C501DF91CF911F910F91FF90A6
:1001C000EF90DF90CF90BF90AF900895FC01538DDA
:1001D000448D252F30E0842F90E0821B930B541721
:1001E00010F0CF96089501970895FC01918D828DAE
:1001F000981761F0A28DAE0FBF2FB11D5D968C9147
:10020000928D9F5F9F73928F90E008958FEF9FEF85
:100210000895FC01918D828D981731F0828DE80F41
:10022000F11D858D90E008958FEF9FEF0895FC01FB
:10023000918D228D892F90E0805C9F4F821B9109C8
:100240008F739927089583E492E00E94170121E0BB
:10025000892B09F420E0822F0895FC01A48DA80FBA
:10026000B92FB11DA35ABF4F2C91848D90E00196F8
:100270008F739927848FA689B7892C93A089B18918
:100280008C91837080648C93938D848D981306C0B9
:100290000288F389E02D80818F7D80830895EF921D
:1002A000FF920F931F93CF93DF93EC0181E0888F30
:1002B0009B8D8C8D98131AC0E889F989808185FF00
:1002C00015C09FB7F894EE89FF896083E889F989A2
:1002D00080818370806480839FBF81E090E0DF91A4
:1002E000CF911F910F91FF90EF900895F62E0B8DF7
:1002F00010E00F5F1F4F0F731127E02E8C8D8E11B2
:100300000CC00FB607FCFACFE889F989808185FF18
:10031000F5CFCE010E942D01F1CFEB8DEC0FFD2F1B
:10032000F11DE35AFF4FF0829FB7F8940B8FEA89D3
:10033000FB8980818062CFCFCF93DF93EC01888DE2
:100340008823B9F0AA89BB89E889F9898C9185FD50
:1003500003C0808186FD0DC00FB607FCF7CF8C91DE
:1003600085FFF2CF808185FFEDCFCE010E942D0168
:10037000E9CFDF91CF91089580E090E0892B29F0BB
:100380000E94230181110E94000080E090E0892BEF
:1003900049F080E090E0892B29F00E940000811153
:1003A0000E94000080E090E0892B49F080E090E01E
:1003B000892B29F00E94000081110E94000080E03A
:1003C00090E0892B49F080E090E0892B29F00E9491
:1003D000000081110C94000008951F920F920FB637
:1003E0000F9211242F933F938F939F93AF93BF93BB
:1003F00080913F0290914002A0914102B09142024F
:1004000030913E0223E0230F2D3758F50196A11DB0
:10041000B11D20933E0280933F0290934002A0932F
:100420004102B093420280913A0290913B02A09126
:100430003C02B0913D020196A11DB11D80933A028C
:1004400090933B02A0933C02B0933D02BF91AF91C9
:100450009F918F913F912F910F900FBE0F901F9002
:10046000189526E8230F0296A11DB11DD2CF1F9229
:100470000F920FB60F9211240BB60F922F933F934A
:100480004F935F936F937F938F939F93AF93BF939C
:10049000EF93FF9383E492E00E942D01FF91EF918F
:1004A000BF91AF919F918F917F916F915F914F918C
:1004B0003F912F910F900BBE0F900FBE0F901F908A
:1004C00018951F920F920FB60F9211240BB60F9230
:1004D0002F938F939F93EF93FF93E0915302F091AB
:1004E00054028081E0915902F0915A0282FD1DC0B0
:1004F000908180915C028F5F8F7320915D028217E3
:1005000041F0E0915C02F0E0ED5BFD4F958F809350
:100510005C02FF91EF919F918F912F910F900BBEF5
:100520000F900FBE0F901F9018958081F2CF109200
:1005300046021092450288EE93E0A0E0B0E080937E
:10054000470290934802A0934902B0934A028AE07E
:1005500092E0909344028093430285EC90E0909364
:10056000500280934F0284EC90E09093520280936B
:10057000510280EC90E0909354028093530281ECFE
:1005800090E0909356028093550282EC90E0909315
:1005900058028093570286EC90E090935A02809321
:1005A000590210925C0210925D0210925E0210924B
:1005B0005F021092E1021092E0021092E3021092A8
:1005C000E2021092E5021092E40261E070E090E035
:1005D00080E00E9419050097E1F09093E10280937A
:1005E000E0021092E3021092E2022091E4023091C4
:1005F000E502232B11F4FC0110821092E502109207
:10060000E40267E372E08091E0029091E1020C94D1
:1006100003068091E0029091E102009711F00E94A0
:1006200090041092E1021092E0021092E502109202
:10063000E4021092E3021092E2020895789484B5E5
:10064000826084BD84B5816084BD85B5826085BDCE
:1006500085B5816085BD80916E00816080936E005C
:10066000109281008091810082608093810080914E
:1006700081008160809381008091800081608093FF
:1006800080008091B10084608093B1008091B000BF
:1006900081608093B000809191008260809391008E
:1006A00080919100816080939100809190008160A1
:1006B000809390008091A10082608093A10080913E
:1006C000A10081608093A1008091A000816080934F
:1006D000A0008091210182608093210180912101FD
:1006E00081608093210180912001816080932001AD
:1006F00080917A00846080937A0080917A00826091
:1007000080937A0080917A00816080937A00809152
:100710007A00806880937A001092C10010923902AA
:1007200010923802E0915302F091540282E08083EB
:10073000E0914F02F09150021082E0915102F0914D
:1007400052028FEC808310925B02E0915702F0918D
:10075000580286E08083E0915502F0915602808134
:1007600080618083E0915502F0915602808188601B
:100770008083E0915502F0915602808180688083E9
:10078000E0915502F091560280818F7D80834CE18B
:1007900050E068E172E083E492E00E94B90042E038
:1007A00050E065E372E083E492E00E94B90080913A
:1007B0003802909139020196909339028093380261
:1007C0000E94BC01E4CF8091E0029091E102009789
:1007D00011F00C9490040895EE0FFF1F881F8BBF3B
:1007E0000790F691E02D19940F931F93CF93DF9309
:1007F0008230910510F482E090E0E091E802F091FF
:10080000E90230E020E0B0E0A0E0309799F4211553
:10081000310509F44AC0281B390B24303105D8F5BD
:100820008A819B816115710589F1FB019383828324
:10083000FE0111C04081518102811381481759077F
:10084000E0F04817590799F4109761F012960C934D
:10085000129713961C933296CF01DF91CF911F917F
:100860000F9108950093E8021093E902F4CF211547
:10087000310551F04217530738F0A901DB019A0105
:10088000BD01DF01F801C1CFEF01F9CF9093E9027B
:100890008093E802CDCFFE01E20FF31F8193919385
:1008A0002250310939832883D7CF2091E602309135
:1008B000E702232B41F4209102023091030230938E
:1008C000E7022093E60220910002309101022115F7
:1008D000310541F42DB73EB7409104025091050215
:1008E000241B350BE091E602F091E702E217F307D3
:1008F000A0F42E1B3F0B2817390778F0AC014E5F90
:100900005F4F2417350748F04E0F5F1F5093E702E3
:100910004093E602819391939FCFF0E0E0E09CCF7B
:10092000CF93DF930097E9F0FC0132971382128294
:10093000A091E802B091E902ED0130E020E01097CB
:10094000A1F420813181820F931F2091E602309122
:10095000E7022817390709F061C0F093E702E09336
:10096000E602DF91CF910895EA01CE17DF07E8F59F
:100970004A815B819E0141155105B1F7E901FB8375
:10098000EA8349915991C40FD51FEC17FD0761F413
:10099000808191810296840F951FE9019983888354
:1009A000828193819B838A83F0E0E0E012968D91AF
:1009B0009C9113970097B9F52D913C911197CD011A
:1009C0000296820F931F2091E6023091E7022817CA
:1009D000390739F6309751F51092E9021092E80282
:1009E000B093E702A093E602BCCFD383C2834081D9
:1009F0005181840F951FC817D90761F44E5F5F4F6F
:100A000088819981480F591F518340838A819B8136
:100A1000938382832115310509F0B0CFF093E90269
:100A2000E093E8029ECFFD01DC01C0CF1382128269
:100A3000D7CF4F925F926F927F928F929F92AF9299
:100A4000BF92CF92DF92EF92FF920F931F93CF93BB
:100A5000DF938C01009799F4CB01DF91CF911F9127
:100A60000F91FF90EF90DF90CF90BF90AF909F904D
:100A70008F907F906F905F904F900C94F403FC01E7
:100A8000E60FF71F9C0122503109E217F30708F423
:100A9000AEC0D901CD91DC911197C617D70720F1CF
:100AA000C530D10578F0CE0104978617970750F02E
:100AB000C61BD70B2297C193D1936D937C93CF0123
:100AC0000E949004C801DF91CF911F910F91FF9078
:100AD000EF90DF90CF90BF90AF909F908F907F90DE
:100AE0006F905F904F9008955B01AC1ABD0A4C0166
:100AF0008C0E9D1EA091E802B091E902512C412C70
:100B0000F12CE12C109731F58091E6029091E702EB
:100B10008815990509F05CC04616570608F058C0BC
:100B20008091000290910102009741F48DB79EB729
:100B30004091040250910502841B950BE817F907B8
:100B400008F055C0F093E702E093E602F9017183E3
:100B50006083B8CF8D919C91119712966C901297EB
:100B600013967C901397A815B90559F56C0142E0CE
:100B7000C40ED11CCA14DB0420F1AC014A195B0974
:100B8000DA011296159780F0628273825183408356
:100B9000D9016D937C93E114F10471F0D7011396A0
:100BA000FC93EE9312978ECF22968C0F9D1FF90126
:100BB00091838083F301EFCFF093E902E093E802A1
:100BC00081CF4816590608F42C017D01D3019ACF34
:100BD000CB010E94F4037C01009749F0AE01B801FB
:100BE0000E94FA05C8010E94900487016BCF10E0B3
:100BF00000E068CFFB01DC0102C001900D92415082
:100C00005040D8F70895FB01DC0101900D920020BF
:100C1000E1F7089510E0C5E8D0E000E006C0802FBD
:100C2000FE010E94EC032196011DC638D10780E029
:080C30000807A9F7F894FFCFB3
:100C38000000EA028000000000004F01B900E60051
:100C48009C011701F5000901436173616E6F7661BC
:100C580020476F6D657A204A6F72676520416C6224
:080C68006572746F000D0A00B3
:00000001FF
