:100000000C9428010C9459010C9459010C94590139
:100010000C9459010C9459010C9459010C945901F8
:100020000C9459010C9459010C9459010C945901E8
:100030000C9459010C9459010C9459010C945901D8
:100040000C9459010C9459010C9459010C945901C8
:100050000C9459010C9459010C9459010C947C0393
:100060000C9459010C9446030C941C030C945901F4
:100070000C9459010C9459010C9459010C94590198
:100080000C9459010C9459010C9459010C94590188
:100090000C9459010C9459010C9459010C94590178
:1000A0000C9459010C9459010C9459010C94590168
:1000B0000C9459010C9459010C9459010C94590158
:1000C0000C9459010C9459010C9459010C94590148
:1000D0000C9459010C9459010C9459010C94590138
:1000E0000C9459010C94A5050C9497050C943102BD
:1000F0000C94EB010C9420050C941B050C947B05CF
:100100000C9472050C949B050C946E050C946A0576
:100110000C94A1050C945B010C947F050C948D0547
:100120000C947E020C9488010C9489050C94970120
:100130000C9466050C9493050C9485050C94F901B8
:100140000C94AC050C9475050000210024002700D8
:100150002A002D00300033000101000004010701D6
:100160000A0100002200250028002B002E0031008B
:10017000340002010000050108010B010505050519
:10018000070508080808020202020A0A080804040F
:10019000040401010101010101010303030303033D
:1001A0000303040707070C0C0C0C0C0C0C0C0202CC
:1001B000020206060606060606060B0B0B0B0B0BC9
:1001C0000B0B010210202008081020401020408056
:1001D000020102010804020101020408102040800B
:1001E0008040201008040201800402018040201099
:1001F00008040201080402010102040810204080E2
:10020000010204081020408000000A0B02090C0DB6
:100210000E080703040100000000000000000000B9
:1002200000000000000000000000000000000000CE
:10023000000000001211100000000000000000008B
:100240000000000000000000000000000000AC05FD
:1002500011241FBECFEFD1E2DEBFCDBF00E00CBF47
:1002600022E0A8E2B2E001C01D92A23DB207E1F790
:1002700012E0A0E0B2E0E2EFFFE000E00BBF02C05E
:1002800007900D92A832B107D9F711E0C8E2D1E08A
:1002900000E006C021970109802FFE010E94D905C8
:1002A000C732D10780E00807A9F70E94C6030C9463
:1002B000F7070C940000AF92BF92CF92DF92EF92BB
:1002C000FF920F931F93CF93DF936C017B018B0100
:1002D000040F151FEB015E01AE18BF08C017D10750
:1002E00059F06991D601ED91FC910190F081E02DDA
:1002F000C6011995892B79F7C501DF91CF911F911F
:100300000F91FF90EF90DF90CF90BF90AF90089546
:10031000FC01538D448D252F30E0842F90E0821B0B
:10032000930B541710F0CF96089501970895FC0190
:10033000918D828D981761F0A28DAE0FBF2FB11DE8
:100340005D968C91928D9F5F9F73928F90E0089540
:100350008FEF9FEF08952FB7F89480912D02909121
:100360002E02A0912F02B09130022FBF809339024C
:1003700090933A02A0933B02B0933C0281E392E057
:100380000E94970197FF26C02FB7F89480912D0205
:1003900090912E02A0912F02B09130022FBF409178
:1003A000390250913A0260913B0270913C02841BE9
:1003B000950BA60BB70B4091350250913602609118
:1003C00037027091380284179507A607B707B0F275
:1003D0008FEF9FEF0895FC01918D828D981731F07A
:1003E000828DE80FF11D858D90E008958FEF9FEFCE
:1003F0000895FC01918D228D892F90E0805C9F4FA4
:10040000821B91098F739927089581E392E00E94DE
:10041000F90121E0892B09F420E0822F0895FC01E5
:10042000A48DA80FB92FB11DA35ABF4F2C91848D55
:1004300090E001968F739927848FA689B7892C93B2
:10044000A089B1898C91837080648C93938D848D05
:10045000981306C00288F389E02D80818F7D808308
:100460000895EF92FF920F931F93CF93DF93EC01C8
:1004700081E0888F9B8D8C8D98131AC0E889F9894B
:10048000808185FF15C09FB7F894EE89FF8960834E
:10049000E889F98980818370806480839FBF81E0CF
:1004A00090E0DF91CF911F910F91FF90EF90089511
:1004B000F62E0B8D10E00F5F1F4F0F731127E02EEC
:1004C0008C8D8E110CC00FB607FCFACFE889F98924
:1004D000808185FFF5CFCE010E940F02F1CFEB8D19
:1004E000EC0FFD2FF11DE35AFF4FF0829FB7F894F8
:1004F0000B8FEA89FB8980818062CFCFCF93DF9316
:10050000EC01888D8823B9F0AA89BB89E889F9892B
:100510008C9185FD03C0808186FD0DC00FB607FC60
:10052000F7CF8C9185FFF2CF808185FFEDCFCE0193
:100530000E940F02E9CFDF91CF91089580E090E013
:10054000892B29F00E94050281110E94000080E0A1
:1005500090E0892B49F080E090E0892B29F00E94FF
:10056000000081110E94000080E090E0892B49F09A
:1005700080E090E0892B29F00E94000081110E9408
:10058000000080E090E0892B49F080E090E0892B2A
:1005900029F00E94000081110C94000008953FB7DB
:1005A000F8948091290290912A02A0912B02B09197
:1005B0002C0226B5A89B05C02F3F19F00196A11D5E
:1005C000B11D3FBFBA2FA92F982F8827BC01CD019D
:1005D000620F711D811D911D42E0660F771F881FFC
:1005E000991F4A95D1F708950F931F93CF93DF93E7
:1005F000EC0188819981009759F02A813B81261767
:10060000370730F081E0DF91CF911F910F9108956E
:100610008B016F5F7F4F0E940607009759F0998307
:1006200088831B830A832C813D81232B59F7FC018E
:100630001082E8CF80E0E7CF1F920F920FB60F92A3
:1006400011240BB60F922F933F934F935F936F93A9
:100650007F938F939F93AF93BF93EF93FF9381E328
:1006600092E00E940F02FF91EF91BF91AF919F9195
:100670008F917F916F915F914F913F912F910F904B
:100680000BBE0F900FBE0F901F9018951F920F92E8
:100690000FB60F9211240BB60F922F938F939F9347
:1006A000EF93FF93E0914102F09142028081E0914B
:1006B0004702F091480282FD1DC0908180914A025C
:1006C0008F5F8F7320914B02821741F0E0914A02B5
:1006D000F0E0EF5CFD4F958F80934A02FF91EF9120
:1006E0009F918F912F910F900BBE0F900FBE0F9087
:1006F0001F9018958081F2CF1F920F920FB60F9224
:1007000011242F933F938F939F93AF93BF93809127
:100710002D0290912E02A0912F02B09130023091C3
:10072000280223E0230F2D3758F50196A11DB11D96
:100730002093280280932D0290932E02A0932F02E3
:10074000B09330028091290290912A02A0912B024D
:10075000B0912C020196A11DB11D809329029093A6
:100760002A02A0932B02B0932C02BF91AF919F91CC
:100770008F913F912F910F900FBE0F901F90189562
:1007800026E8230F0296A11DB11DD2CFCF93DF9390
:1007900000D000D01F921F92CDB7DEB7789484B5F9
:1007A000826084BD84B5816084BD85B5826085BD6D
:1007B00085B5816085BD80916E00816080936E00FB
:1007C00010928100809181008260809381008091ED
:1007D000810081608093810080918000816080939E
:1007E00080008091B10084608093B1008091B0005E
:1007F00081608093B000809191008260809391002D
:10080000809191008160809391008091900081603F
:10081000809390008091A10082608093A1008091DC
:10082000A10081608093A1008091A00081608093ED
:10083000A00080912101826080932101809121019B
:10084000816080932101809120018160809320014B
:1008500080917A00846080937A0080917A0082602F
:1008600080937A0080917A00816080937A008091F1
:100870007A00806880937A001092C1000FEC11E03A
:10088000F801249149E8E42E41E0F42EF701849127
:10089000882399F090E0880F991FFC01E85BFE4FD8
:1008A000A591B491FC01EE59FE4F859194918FB7BB
:1008B000F8949C91292B2C938FBFE0914102F091E9
:1008C000420282E08083E0913D02F0913E0210827C
:1008D000E0913F02F09140028FEC80831092490238
:1008E000E0914502F091460286E08083E091430268
:1008F000F0914402808180618083E0914302F09115
:100900004402808188608083E0914302F091440238
:10091000808180688083E0914302F091440280816D
:100920008F7D808384E690E0A0E0B0E08093350284
:1009300090933602A0933702B093380225E1C22E7D
:1009400022E0D22E81E392E00E94F90118161906E6
:100950000CF095C01A8219821C821B821E821D8295
:1009600070E060E0CE0101960E94F40229813A8194
:1009700081112CC02115310519F0C9010E947D0695
:100980001A8219821E821D821C821B820E94AB0168
:1009900097FD24C08F831886AD80BE80FFEFAF1A0D
:1009A000BF0AB501CE0101960E94F402882371F3BB
:1009B00029813A818D819E81BE01695F7F4F820FBF
:1009C000931F0E94F007BE82AD82E0CF1E821D827F
:1009D00067E272E0C9010E94F007D8CF89819A814D
:1009E000009709F0B6C0F6018491F8012491F7014F
:1009F0009491992309F433C0882311F181508231F5
:100A0000F8F4E82FF0E08827E75FFA4F8F4F0C9457
:100A1000D9056E0572051B0566056A052005750575
:100A20007B057F05850589058D05930597052005BF
:100A30009B05A105A505809180008F77809380009C
:100A4000E92FF0E0EE0FFF1FEE59FE4FA591B49194
:100A50008FB7F8949C91209529232C938FBF4CE05D
:100A600050E068E172E081E392E00E945B0142E0C5
:100A700050E065E272E081E392E00E945B010E9437
:100A8000CF022B013C018AEF882E912CA12CB12C96
:100A90000E94CF026419750986099709683E734060
:100AA00081059105A8F3F1E08F1A9108A108B1081A
:100AB00028EE420E23E0521E611C711C8114910429
:100AC000A104B10429F70E949E023CCF80918000CE
:100AD0008F7DB4CF80918000877FB0CF84B58F7732
:100AE00084BDAECF84B58F7DFBCF8091B0008F7772
:100AF0008093B000A5CF8091B0008F7DF9CF809119
:100B000090008F77809390009BCF809190008F7D95
:100B1000F9CF80919000877FF5CF8091A0008F77EB
:100B20008093A0008DCF8091A0008F7DF9CF809120
:100B3000A000877FF5CF809120018F7780932001DF
:100B40007FCF809120018F7DF9CF80912001877F19
:100B5000F5CF0E947D0647CFE1E3F2E013821282D7
:100B600088EE93E0A0E0B0E084839583A683B7830A
:100B70008AE092E09183808385EC90E0958784877A
:100B800084EC90E09787868780EC90E0918B808B57
:100B900081EC90E0938B828B82EC90E0958B848B40
:100BA00086EC90E0978B868B118E128E138E148EAE
:100BB0000895EE0FFF1F881F8BBF0790F691E02D61
:100BC00019940F931F93CF93DF938230910510F404
:100BD00082E090E0E091D002F091D10230E020E09C
:100BE000B0E0A0E0309799F42115310509F44AC02E
:100BF000281B390B24303105D8F58A819B8161157A
:100C0000710589F1FB0193838283FE0111C040814C
:100C100051810281138148175907E0F0481759079D
:100C200099F4109761F012960C93129713961C93F7
:100C30003296CF01DF91CF911F910F9108950093CC
:100C4000D0021093D102F4CF2115310551F0421793
:100C5000530738F0A901DB019A01BD01DF01F8015A
:100C6000C1CFEF01F9CF9093D1028093D002CDCFC5
:100C7000FE01E20FF31F81939193225031093983D2
:100C80002883D7CF2091CE023091CF02232B41F47D
:100C900020910202309103023093CF022093CE02C2
:100CA00020910002309101022115310541F42DB748
:100CB0003EB74091040250910502241B350BE09190
:100CC000CE02F091CF02E217F307A0F42E1B3F0BE8
:100CD0002817390778F0AC014E5F5F4F24173507AE
:100CE00048F04E0F5F1F5093CF024093CE02819386
:100CF00091939FCFF0E0E0E09CCFCF93DF930097FC
:100D0000E9F0FC01329713821282A091D002B091D7
:100D1000D102ED0130E020E01097A1F42081318173
:100D2000820F931F2091CE023091CF0228173907EE
:100D300009F061C0F093CF02E093CE02DF91CF9132
:100D40000895EA01CE17DF07E8F54A815B819E012D
:100D500041155105B1F7E901FB83EA8349915991A6
:100D6000C40FD51FEC17FD0761F4808191810296B5
:100D7000840F951FE90199838883828193819B83E6
:100D80008A83F0E0E0E012968D919C911397009792
:100D9000B9F52D913C911197CD010296820F931FC9
:100DA0002091CE023091CF022817390739F63097BB
:100DB00051F51092D1021092D002B093CF02A093BD
:100DC000CE02BCCFD383C28340815181840F951F53
:100DD000C817D90761F44E5F5F4F88819981480F2A
:100DE000591F518340838A819B819383828321157C
:100DF000310509F0B0CFF093D102E093D0029ECF3D
:100E0000FD01DC01C0CF13821282D7CF4F925F92D7
:100E10006F927F928F929F92AF92BF92CF92DF920A
:100E2000EF92FF920F931F93CF93DF938C01009764
:100E300099F4CB01DF91CF911F910F91FF90EF902B
:100E4000DF90CF90BF90AF909F908F907F906F90EA
:100E50005F904F900C94E105FC01E60FF71F9C0199
:100E600022503109E217F30708F4AEC0D901CD9141
:100E7000DC911197C617D70720F1C530D10578F05E
:100E8000CE0104978617970750F0C61BD70B229701
:100E9000C193D1936D937C93CF010E947D06C801CD
:100EA000DF91CF911F910F91FF90EF90DF90CF9046
:100EB000BF90AF909F908F907F906F905F904F907A
:100EC00008955B01AC1ABD0A4C018C0E9D1EA091C9
:100ED000D002B091D102512C412CF12CE12C109771
:100EE00031F58091CE029091CF028815990509F0D5
:100EF0005CC04616570608F058C0809100029091D9
:100F00000102009741F48DB79EB7409104025091C1
:100F10000502841B950BE817F90708F055C0F093FC
:100F2000CF02E093CE02F90171836083B8CF8D9137
:100F30009C91119712966C90129713967C90139730
:100F4000A815B90559F56C0142E0C40ED11CCA14AC
:100F5000DB0420F1AC014A195B09DA0112961597FE
:100F600080F06282738251834083D9016D937C93B8
:100F7000E114F10471F0D7011396FC93EE931297EC
:100F80008ECF22968C0F9D1FF90191838083F301F0
:100F9000EFCFF093D102E093D00281CF48165906EB
:100FA00008F42C017D01D3019ACFCB010E94E10509
:100FB0007C01009749F0AE01B8010E94E707C80123
:100FC0000E947D0687016BCF10E000E068CFFB0137
:100FD000DC0102C001900D9241505040D8F70895B5
:100FE000FB01DC0101900D920020E1F70895F894D7
:020FF000FFCF31
:100FF2000000D20280000000000031025B01880183
:101002007E02F9019701EB014C6564207365206152
:0810120070616761000D0A0026
:00000001FF
